S01600005957696E74685F4D61696E4D50552E73726563D5
S113000081C200009DC200009BC2000099C2000092
S113001097C2000095C2000093C2000091C2000084
S11300208FC200008DC200008BC2000089C2000094
S113003087C2000085C2000083C2000081C20000A4
S11300401EC500007DC200007BC2000079C2000012
S11300504EC5000075C2000073C2000071C20000EA
S11300606FC200006DC200006BC2000069C20000D4
S113007067C2000065C2000063C2000061C20000E4
S11300805FC200005DC200005BC20000000000000F
S1130090000000000000000000000000000000005C
S11300A00000000000000000000000004700000005
S11300B0000000000000000000000000000000003C
S11300C000000000000000000000000048000000E4
S11300D0000000000000000000000000000000001C
S11300E000000000000000000000000045000000C7
S11300F000000000000000000000000000000000FC
S11301000000000000000000000000004A000000A1
S113011000000000000000000000000000000000DB
S113012000000000000000000000000000000000CB
S113013000000000000000000000000000000000BB
S11301400000000000000000000000004F004D000F
S113015000004C000000000000004A000000000005
S11301600000000000000000000000004300410007
S1130170000040000000000000003E0000000000FD
S1130180000000000000000000003C00000000002F
S1130190000000000000000000000000000000005B
S11301A00000000000000000000000004700000004
S11301B0000000000000000000000000000000003B
S11301C00000000000000000000000003D000000EE
S11301D0000000000000000000000000000000001B
S11301E000000000000000000000000046000000C5
S11301F000000000000000000000000000000000FB
S11302000000000000000000000000004B0000009F
S113021000000000000000000000000000000000DA
S113022000000000000000000000000000000000CA
S113023000000000000000000000000000000000BA
S113024000000000000000000000000050004E000C
S1130250000000000000000000004B00000000004F
S11302600000000000000000000000004400420004
S1130270000000000000000000003F00000000003B
S1130280000000000000000000003D00000101002B
S113029000011F06060464030000FBFC0000FF00CD
S11302A007FFFF1252035A0362036A0372037A03BD
S11302B08203F202FA0202030A0312031A0322035C
S11302C02A0332033A0342034A03D202DA02E20265
S11302D0EA02205957696E7468002020466C7574D0
S11302E065002020202053617800446967486F72BC
S11302F06E0020472020202D350020416220202D33
S1130300340020412020202D33005B42625D202DEB
S1130310320020422020202D31005B43205D20202C
S1130320300020446220202B310020442020202B48
S113033032005B45625D202B330020452020202BBA
S113034034005B46205D202B350020462320202BE3
S1130350360053696E57617665004272617373208B
S113036031004272617373203200537175576176A4
S113037065005361775761766500452E5069616E5B
S11303806F00546E722E536178009603AA03BE0365
S1130390D203E603FA034D6173746572566F6C758C
S11303A06D652000000000000000507269736574E0
S11303B0546F6E652020200000000000000054727D
S11303C0616E73706F7365202020200000000000B0
S11303D000004F63746176652020202020202000D7
S11303E00000000000004272656174684C65766527
S11303F06C20200000000000000046696E676572F2
S11304002020202020202000000000000000810186
S113041085007FF4BB00104000AFA00E0310400025
S11304202FF39B00204100AFA00E011040800381F8
S11304308081018500747A55002000008DA00E0390
S1130440100000747A42001000008CA00E011010FD
S11304508003818081018500747B56001000008D2B
S1130460A00203000800747B42001000008CA0026C
S113047001100880038180810185007FF4BB001096
S11304803000AFA00E031030002FF39B002031008A
S1130490AFA00E01103080038180810185007FF4BC
S11304A0BB0010C000AFA00E0310C0002FF39B00D0
S11304B020C100AFA00E0110C080038180810145DE
S11304C051C4FB8C4470951082FF1245100011B08A
S11304D0F1494410021172FF1041100000000000A5
S11304E08101450103701644100B0092703C4310C7
S11304F0400103702244104B000000000000000083
S11305000000000011241FBECFEFD0E4DEBFCDBF3A
S113051012E0A0E0B1E0E8ECFCE100E00BBF02C0B7
S113052007900D92A43CB107D9F725E0A4ECB2E002
S113053001C01D92A532B207E1F705D30C94620EF7
S11305405FCD82E08093B80088E08093B90084E0B6
S11305508093BC00089584EA8093BC00ECEBF0E047
S113056080818823ECF708958093BB0084E880930E
S1130570BC00ECEBF0E080818823ECF70895892B34
S113058031F484EC8093BC00ECEBF0E004C084E82C
S11305908093BC00F9CF80818823ECF78091BB0065
S11305A090E008951F93CF93DF93C82F162FC9DFD0
S11305B0D2DFD0E0CC0FDD1FCE01D6DF812F90E05B
S11305C0D3DFC9DFCE010196CFDF81E090E0D7DF32
S11305D024E92093BC009927DF91CF911F910895BE
S11305E01F93CF93DF93C82F162FD42FAADFB3DF27
S11305F08C2F90E0880F991FB7DF812F90E0B4DF34
S11306008D2F90E0B1DF84E98093BC00DF91CF911E
S11306101F910895CF93DF9368E28CE5C3DFC82F61
S113062069E28CE5BFDFD82F6AE28CE5BBDF90E09E
S1130630A0E0B0E0BA2FA92F982F88278D0F911D25
S1130640A11DB11DBA2FA92F982F8827BC01CD0158
S11306506C0F711D811D911DDF91CF91089540E5AF
S113066060E18CE5BDCF0895D5DF6093C40270933B
S1130670C5028093C6029093C70208950F931F93F7
S1130680C9DF0091C4021091C5022091C6023091C5
S1130690C702601B710B820B930B1F910F9108957E
S11306A099236CF06D3921E37207810591054CF4AF
S11306B024E630E040E050E0C6D7822F089580E081
S11306C008958FE70895ECDF86958695089584B1A3
S11306D0807F84B987B18F7387B985B18F6085B9FD
S11306E088B1806C88B9089583B196B1907C969551
S11306F096958F70892B0895F7DFE9ECF2E040E0DE
S113070050E0682F70E02081922F990F9B01042EF6
S113071002C0359527950A94E2F72170292B21937D
S11307204F5F5F4F4630510571F708959091010175
S113073090930001E9ECF2E020E030E061E070E049
S113074081918F708F3049F4AB01022E02C0440FA7
S1130750551F0A94E2F7942B0CC081110AC0DB01E7
S1130760022E02C0AA0FBB1F0A94E2F7AD01409506
S113077094232F5F3F4F2630310511F790930101E9
S113078008958091010190910001982B89279091FF
S1130790C802892B8093C80208959091C802692FDA
S11307A070E0892F817090FD0EC021E030E0E22FCF
S11307B0F22FAB01022E02C0559547950A94E2F739
S11307C040FF11C002C0F0E0E0E021E030E002C0F0
S11307D0220F331FFA95E2F7209592239093C802D3
S11307E081E08E0F08952F5F3F4F26303105F9F6D3
S11307F0089588E98093C1001092C50081E1809337
S1130800C4000895E0ECF0E0908195FFFDCF809363
S1130810C6000895CF93DF93EC018881882329F0E3
S11308202196F0DF89918111FCCFDF91CF9108955A
S1130830CF939091D0028091D102981779F0E091F2
S1130840D002F0E0EE52FC4FC0818091D0028F5F65
S11308508093D0028C2FD6DF8C2F01C08FEFCF91E5
S11308600895CF93DF9300D01F92CDB7DEB7E2EDAA
S1130870F2E08181898382818A831B826EE371E045
S1130880CE01019634D7892BD9F481E491E0C2DFFB
S11308908091D6028E3471F018F4843441F00FC084
S11308A0803559F0853559F481E00AD308C08FEFBB
S11308B007D305C081E0DBD202C08FEFD8D22FD29C
S11308C00F900F900F90DF91CF9108959091D002E7
S11308D08091D102981731F1ABDF803419F4109272
S11308E0CF0210C08B3371F4E091CF02F0E0EE52EE
S11308F0FD4F108282ED92E08DDF80E592E08ADF89
S1130900B0DF10C09091CF02E92FF0E0EE52FD4F1E
S113091080839F5F9093CF029091D0028091D10207
S11309209813DACFE091CF02F0E0EE52FD4F10823F
S11309300895E82FF0E0EE0FFF1FE457FF4F2591D5
S11309403491C9010097B1F08091D304082E000CB2
S1130950990BAC01440F551F840F951F880F991FE5
S1130960880F991F4091D204840F911D47FD9A95D9
S1130970820F931F08958093D30408958093D20423
S11309800895482F60E08EE32BDE8FEA94E0019710
S1130990F1F700C000000895482F60E48EE320DEE4
S11309A080EA8A95F1F7089500247695679507946F
S11309B0769567950794762F602D860F971F80682C
S11309C0E0CF089588E3DDDF8FEA94E00197F1F743
S11309D000C0000089E3D5DF8FEA94E00197F1F7C6
S11309E000C0000084E1CDDF8FEA94E00197F1F7C5
S11309F000C000008FE7C5DF8FEA94E00197F1F7AC
S1130A0000C0000084E5BDDF8FEA94E00197F1F7B0
S1130A1000C000008CE6B5DF9FEF23EC89E0915025
S1130A2020408040E1F700C0000088E3AADF8FEA9D
S1130A3094E00197F1F700C0000081E0A2DF8FEAA3
S1130A4094E00197F1F700C000008CE09ADF9FEF7B
S1130A5023EC89E0915020408040E1F700C0000081
S1130A600895CF93DF93EC018881882329F02196A0
S1130A7093DF89918111FCCFDF91CF9108951F926B
S1130A800F920FB60F9211240BB60F922F933F9330
S1130A904F935F936F937F938F939F93AF93BF9382
S1130AA0EF93FF938091D404833031F481E08093F9
S1130AB002011092D40405C08091D4048F5F809306
S1130AC0D4041ADE33DE5DDEFF91EF91BF91AF9166
S1130AD09F918F917F916F915F914F913F912F9152
S1130AE00F900BBE0F900FBE0F901F9018951F9282
S1130AF00F920FB60F9211240BB60F928F93EF93B0
S1130B00FF93E091D102F0E08091C600EE52FC4FD9
S1130B1080838091D1028F5F8093D102FF91EF9106
S1130B208F910F900BBE0F900FBE0F901F901895D2
S1130B30259A089582E084BD95E095BD90E197BD26
S1130B4080936E000895CF93DF93CDB7DEB7C4567C
S1130B50D1090FB6F894DEBF0FBECDBF74D280E0CA
S1130B607ED2E6DFB4DD55D4AFD4FBD46FE18CE3A1
S1130B7090E045D53EDE8DE491E09F938F9383E52D
S1130B8091E09F938F938E010F5F1F4F1F930F93DD
S1130B90BED5C8013FDE81E991E03CDE88EB91E0FF
S1130BA039DE8FEC91E036DE88EE91E033DEFCD165
S1130BB02FEF81EE94E0215080409040E1F700C097
S1130BC0000000DF2FEF81EE94E021508040904040
S1130BD0E1F700C000008FEF91E043DF2FEF89EFD2
S1130BE090E0215080409040E1F700C0000061E0B7
S1130BF070E08BE090E0D8DE2FEF89EF90E0215099
S1130C0080409040E1F700C000008DE491E029DFCE
S1130C102FEF89EF90E0215080409040E1F700C031
S1130C2000009BD487DF1BDD1092D4042FEF89E6EC
S1130C3098E1215080409040E1F700C0000014DDAD
S1130C402FEF89E698E1215080409040E1F700C001
S1130C50000081E0E2D1FAD078940F900F900F90C9
S1130C600F900F900F90912C812C0F2EF6E0CF2E29
S1130C70F2E0DF2EF02D5801809102018823E1F388
S1130C80FDDC2B013C011FDDE82EC301B20108DDB0
S1130C90F82EB0D34EDE8C01009719F06E2DAFD430
S1130CA001C05BD413DE1F921F921F92EF92DF925A
S1130CB0CF92BF92AF922BD50FB6F894DEBF0FBE82
S1130CC0CDBF93E19F1548F024E1291568F440E075
S1130CD0682D81E08DD141D407C083E1891520F0CE
S1130CE04F2D602F81E084D129D1109202019F2CD5
S1130CF0802EC2CFE091D504F091D60480813BCE02
S1130D000895E091D504F091D604808137CE0895FA
S1130D10E091D504F091D60480812CC308950F93FB
S1130D201F93CF93DF93CDB7DEB7C055D1090FB66C
S1130D30F894DEBF0FBECDBF8091DD0490E09C012E
S1130D4029523B4F3093D6042093D504FC01E45739
S1130D50FD4F25913491122FFC01EE0FFF1FE65732
S1130D60FC4F65917491CE018996BAD4BE01675D3A
S1130D707F4FCE010196C4D411111BC0E091D5045C
S1130D80F091D6048081282F082E000C330B3F935A
S1130D908F938AE092E09F938F93CE0145969F9321
S1130DA08F93B5D40F900F900F900F900F900F90DA
S1130DB031C02091DD0430E0F901E256FD4F859108
S1130DC09491F901E856FD4F25913491E091D504B1
S1130DD0F091D604E081E80FE21BF0E0EE0FFF1F74
S1130DE0EC55FD4F659174918E01035C1F4FC80152
S1130DF077D41F930F938BE192E09F938F93CE014F
S1130E0045969F938F9383D40F900F900F900F90DC
S1130E100F900F9060E070E080E090E0C5DDCE01BF
S1130E2001961FDE61E070E080E090E0BDDDCE0160
S1130E30459617DEC05BDF4F0FB6F894DEBF0FBEDA
S1130E40CDBFDF91CF911F910F910895E7EDF4E0AD
S1130E5084E1808311821282138282E3848310925C
S1130E60DD04F093D604E093D50459CF089581307E
S1130E7069F48091DD04853020F48F5F8093DD0474
S1130E8015C0853089F41092DD0410C08F3F61F4E1
S1130E908091DD04882321F081508093DD0406C015
S1130EA085E08093DD0402C01092DD048091DD04AE
S1130EB090E089529B4F9093D6048093D504089573
S1130EC02091DD0430E0F901EE56FD4F4591549137
S1130ED0F901E856FD4F65917491F901E952FB4F10
S1130EE0F093D604E093D504813099F4F901E952E2
S1130EF0FB4F8081841734F4F901E952FB4F8F5F73
S1130F0080830895481319C0F901E952FB4F6083A7
S1130F1008958F3F91F4F901E952FB4F80816817DE
S1130F2034F4F901E952FB4F81508083089568132A
S1130F3004C0F901E952FB4F40830895CF93DF9336
S1130F401F92CDB7DEB729DC898389818330A9F06C
S1130F5028F4813049F0823069F022C0853091F064
S1130F6030F0863069F01CC081E0AADF0BC08FEF3F
S1130F70A7DF08C08FEF7BDF05C081E078DF02C008
S1130F8080E075DFE091DD04F0E0EE0FFF1FE95D26
S1130F90FD4F0190F081E02D309709F00995BFDEF7
S1130FA00F90DF91CF91089588E18093C9008FE17C
S1130FB090E09093CD008093CC000895E8ECF0E0AD
S1130FC0908195FFFDCF8093CE0008950F931F93DA
S1130FD0CF93DF93EC018C010D5F1F4F8991EEDFFE
S1130FE0C017D107D9F7DF91CF911F910F910895C1
S1130FF0CF93DF9300D000D0CDB7DEB780E98983EB
S11310006A834B831C82CE010196E0DF0F900F9020
S11310100F900F90DF91CF910895CF93DF9300D07D
S113102000D0CDB7DEB7806B89838BE78A831B82C0
S11310301C82CE010196CADF0F900F900F900F9083
S1131040DF91CF9108958CB581658CBD84B1806B9F
S113105084B908958EBD0DB407FEFDCF08958111A6
S113106002C02C9A08952C980895CF93DF93D82F1B
S1131070C62F81E0F4DF8D2FEDDF8C2FEBDF80E0D6
S1131080EEDFDF91CF910895FF920F931F93CF93DB
S1131090DF93C82F8B01F42E81E0E1DF8C2FDADFA0
S11310A0FF2041F0E8010F0D111D8991D3DFC01716
S11310B0D107D9F780E0D3DFDF91CF911F910F9152
S11310C0FF900895DC01FB0111968C9111978370B8
S11310D0828312968C911297829586958695837059
S11310E0818312968C9112978770808320E01396E7
S11310F08C91139782958F70858314968C91149795
S113110082958F70878315968C91159782958F7031
S1131110838316968C911697869586958287149666
S11311208C9114978F70848315968C9115978F707A
S1131130868313968C91139783FB882780F9838B7E
S113114013968C9113978170848716968C911697B9
S11311508370838717968C911797807690E0959586
S11311608795959587959595879595958795959563
S11311708795808B17968C91179782958170818BB8
S113118017968C911797867090E09595879586872A
S113119017968C9117978170878718968C9118975A
S11311A082958F70808718968C91189787708187A5
S11311B019968C91199786958695869585871996A3
S11311C08C9119978370828B2F5F179671962430B8
S11311D009F08DCF08954F925F926F927F928F9214
S11311E09F92AF92BF92CF92DF92EF92FF920F93B2
S11311F01F93CF93DF93CDB7DEB7C054D1090FB699
S1131200F894DEBF0FBECDBF8C01FC0180811F921C
S11312108F9381811F928F9382811F928F9383E397
S113122092E09F938F93CE0101967C019F938F93BD
S11312306ED2C701EFDA0FB6F894DEBF0FBECDBF92
S1131240C12CD12C0F2EF8E48F2EF2E09F2EF02D1E
S11312500F2EF2E5AF2EF2E0BF2EF02D0F2EF7E7A2
S11312606F2EF2E07F2EF02D0F2EF9EA4F2EF2E0D2
S11312705F2EF02DDF92CF929F928F92FF92EF928A
S113128046D2C701C7DAF80186811F928F93848101
S11312901F928F9382851F928F9383811F928F93C6
S11312A087811F928F9385811F928F93BF92AF92F4
S11312B0FF92EF922CD2C701ADDAF80187851F9215
S11312C08F9386851F928F9381891F928F93808934
S11312D01F928F9383851F928F9384851F928F9380
S11312E083891F928F937F926F92FF92EF920FD216
S11312F00FB6F894DEBF0FBECDBFC7018BDAF8017D
S113130082891F928F9385851F928F9381851F9267
S11313108F9380851F928F935F924F92FF92EF92EB
S1131320F6D1C70177DAFFEFCF1ADF0A0F5E1F4F3E
S11313300FB6F894DEBF0FBECDBF94E0C916D1043A
S113134009F098CFC05CDF4F0FB6F894DEBF0FBE34
S1131350CDBFDF91CF911F910F91FF90EF90DF9060
S1131360CF90BF90AF909F908F907F906F905F9041
S11313704F900895CF93DF93CDB7DEB7A3970FB601
S1131380F894DEBF0FBECDBF23E2829FC0011124BB
S1131390825F9B4FDE011196AE014C5D5F4FFC01F5
S11313A0259134912D930196A417B507C1F766EFE3
S11313B088E05BDE8FE99FE00197F1F700C0000051
S11313C060E088E052DE43E2BE016F5F7F4F87E05A
S11313D05BDE6EED74E0CE01019674DE8EED94E07A
S11313E0FADEA3960FB6F894DEBF0FBECDBFDF9131
S11313F0CF91089512B88FEF81B98AE18A95F1F7F8
S113140000C011B88AE68A95F1F700C080B18095D2
S1131410089560E08DE129DE6EE082E026DE8FE94A
S11314209FE00197F1F700C0000061E080E01DDE5D
S113143060E081E01ADE63EA8AE117DE8FE99FE06B
S11314400197F1F700C0000060E08AE10EDE9FEF33
S113145026E781E0915020408040E1F700C0000081
S113146064E082E002DE8FE99FE00197F1F700C0BB
S1131470000060E082E0F9DD60EF89E1F6DD6FE312
S11314808BE1F3DD60E084E1F0DD61E083E0EDDD3C
S113149066EF88E0EADD9FE726E081E09150204096
S11314A08040E1F700C0000060E088E0DEDD68EF26
S11314B089E0DBDD60E08AE0D8DD60E487E1D5DD4A
S11314C060E088E1D2CD0895CF93DF93CDB7DEB746
S11314D0A3970FB6F894DEBF0FBECDBF83E2E3E05F
S11314E0F1E0DE01119601900D928A95E1F766EF25
S11314F088E0BBDD8FE99FE00197F1F700C00000B1
S113150060E088E0B2DD43E2BE016F5F7F4F87E0B9
S1131510BBDDA3960FB6F894DEBF0FBECDBFDF913F
S1131520CF9108951F93CF93DF93182FD62FC42FF5
S113153060E08BE09ADD6C2F660F660F8CE095DD22
S1131540612F8DE092DD6D2F8EE08FDD60E48FE002
S11315508CDDDF91CF911F91089560E08FE085CD00
S1131560089560E38FE081DD61E780E17EDD60E086
S113157081E17BDD68E082E178DD60E083E175CDC7
S11315800895CF93DF93CDB7DEB768970FB6F8947D
S1131590DEBF0FBECDBFAC0188E1E6E2F1E0DE01C3
S11315A0119601900D928A95E1F79A01ABEABAEA95
S11315B066D09695879596958795969587959C017F
S11315C0220F331F820F931F880F991F880F991FB3
S11315D0FA01E81BF90BFF27EE0FFF1F81E090E0F3
S11315E08C0F9D1FE80FF91F8081918168960FB6BB
S11315F0F894DEBF0FBECDBFDF91CF9108951F9346
S1131600CF93DF93EC01162FBCDF9C01329522951A
S11316102F7023273F702327E22FE873582F5F771B
S11316209E01ABEABAEA2BD0969587959695879555
S1131630969587958150412F652F8E2B73DFDF910F
S1131640CF911F910895052E97FB16F400940FD0A7
S113165057FD05D023D007FC02D046F408C05095AE
S11316604095309521953F4F4F4F5F4F089590958A
S11316708095709561957F4F8F4F9F4F0895A29FDE
S1131680B001B39FC001A39F700D811D1124911D52
S1131690B29F700D811D1124911D0895A1E21A2E8F
S11316A0AA1BBB1BFD010DC0AA1FBB1FEE1FFF1F02
S11316B0A217B307E407F50720F0A21BB30BE40B52
S11316C0F50B661F771F881F991F1A9469F7609599
S11316D07095809590959B01AC01BD01CF01089553
S11316E0FB01DC0105900D920020E1F70895FB0158
S11316F0DC018D91019080190110D9F3990B0895A3
S1131700FB01DC0101900D920020E1F708950F9395
S11317101F93CF93DF93CDB7DEB72E970FB6F89410
S1131720DEBF0FBECDBF0D891E8986E08C831A8370
S113173009838FEF9FE79E838D83AE01475E5F4FE2
S11317406F89788DCE01019610D0EF81F885E00F76
S1131750F11F10822E960FB6F894DEBF0FBECDBFD8
S1131760DF91CF911F910F9108952F923F924F9245
S11317705F926F927F928F929F92AF92BF92CF921D
S1131780DF92EF92FF920F931F93CF93DF93CDB726
S1131790DEB72B970FB6F894DEBF0FBECDBF6C013A
S11317A07B018A01FC0117821682838181FFBFC1FC
S11317B0CE0101963C01F6019381F70193FD8591D9
S11317C093FF81917F01882309F4ADC1853239F4F7
S11317D093FD859193FF81917F01853221F4B601B8
S11317E090E0D6D1E8CF912C212C312CFFE1F315D8
S11317F0D8F08B3279F038F4803279F08332A1F466
S1131800232D20611DC08D3261F0803369F4232DB6
S1131810216016C0832D8260382EE32DE4603E2EB5
S11318202AC0F32DF8601DC037FC2DC020ED280F11
S11318302A3040F08E32B9F436FC75C1232D206471
S1131840322E19C036FE06C08AE0989E200D11245F
S1131850922E11C0EAE02E9E200D1124222EF32D8B
S1131860F0623F2E08C08C3621F4832D8068382E18
S113187002C0883641F4F70193FD859193FF81916D
S11318807F018111B3CF982F9F7D9554933028F415
S11318900C5F1F4F9FE399830DC0833631F083376C
S11318A071F0833509F055C020C0F8018081898327
S11318B00E5F1F4F88248394912C530112C028017A
S11318C0F2E04F0E511CF801A080B18036FE03C037
S11318D0692D70E002C06FEF7FEFC5014ED14C015E
S11318E08201F32DFF773F2E15C0280122E0420E1E
S11318F0511CF801A080B18036FE03C0692D70E050
S113190002C06FEF7FEFC5012DD14C01F32DF068BC
S11319103F2E820133FC19C0822D90E0881699066F
S1131920A0F4B60180E290E033D12A94F5CFF5011A
S113193037FC859137FE81915F01B60190E028D193
S113194021102A9421E0821A91088114910479F7D4
S1131950E1C0843611F0893639F5F80137FE07C045
S113196060817181828193810C5F1F4F08C0608107
S11319707181072E000C880B990B0E5F1F4FF32DFE
S1131980FF763F2E97FF09C09095809570956195DD
S11319907F4F8F4F9F4FF0683F2E2AE030E0A30126
S11319A033D1882E861844C0853731F4232D2F7EF9
S11319B0B22E2AE030E025C0932D997FB92E8F36C0
S11319C0C1F018F4883579F0AEC0803719F0883743
S11319D021F0A9C0E92FE061BE2EB4FE0DC0FB2D9D
S11319E0F460BF2E09C034FE0AC0292F2660B22E2F
S11319F006C028E030E005C020E130E002C020E16C
S1131A0032E0F801B7FE07C0608171818281938161
S1131A100C5F1F4F06C06081718180E090E00E5F13
S1131A201F4FA301F1D0882E8618FB2DFF773F2E80
S1131A3036FE0DC0232D2E7FA22E891458F434FEB9
S1131A400BC032FC09C0832D8E7EA82E05C0B82C95
S1131A50A32C03C0B82C01C0B92CA4FE0FC0FE01F6
S1131A60E80DF11D8081803321F49A2D997EA92EF1
S1131A7009C0A2FE06C0B394B39404C08A2D86782C
S1131A8009F0B394A3FC10C0A0FE06C0B21480F405
S1131A90280C922C9B180DC0B21458F4B60180E2A5
S1131AA090E076D0B394F8CFB21418F42B1802C097
S1131AB0982C212CA4FE0FC0B60180E390E068D0DE
S1131AC0A2FE16C0A1FC03C088E790E002C088E52E
S1131AD090E0B6010CC08A2D867851F0A1FE02C0B8
S1131AE08BE201C080E2A7FC8DE2B60190E050D009
S1131AF0891430F4B60180E390E04AD09A94F8CF88
S1131B008A94F301E80DF11D8081B60190E040D084
S1131B108110F6CF222009F44ECEB60180E290E087
S1131B2037D02A94F7CFF6018681978102C08FEFD0
S1131B309FEF2B960FB6F894DEBF0FBECDBFDF919B
S1131B40CF911F910F91FF90EF90DF90CF90BF90B6
S1131B50AF909F908F907F906F905F904F903F9049
S1131B602F900895FC010590615070400110D8F742
S1131B70809590958E0F9F1F0895FC0161507040D1
S1131B8001900110D8F7809590958E0F9F1F0895AE
S1131B900F931F93CF93DF93FB01238121FD03C098
S1131BA08FEF9FEF2CC022FF16C0468157812481FE
S1131BB035814217530744F4A081B1819D012F5F01
S1131BC03F4F318320838C93268137812F5F3F4F92
S1131BD03783268314C08B01EC01FB010084F1855B
S1131BE0E02D0995892BE1F6D80116968D919C91EB
S1131BF01797019617969C938E931697CE01DF91B3
S1131C00CF911F910F910895FA01AA27283051F11D
S1131C10203181F1E8946F936E7F6E5F7F4F8F4F19
S1131C209F4FAF4FB1E03ED0B4E03CD0670F781F78
S1131C30891F9A1FA11D680F791F8A1F911DA11D5D
S1131C406A0F711D811D911DA11D20D009F4689496
S1131C503F912AE0269F11243019305D3193DEF63E
S1131C60CF010895462F4770405D4193B3E00FD0F4
S1131C70C9F7F6CF462F4F70405D4A3318F0495DDF
S1131C8031FD4052419302D0A9F7EACFB4E0A695C2
S1131C909795879577956795BA95C9F700976105E4
S1131CA0710508959B01AC010A2E0694579547953A
S1131CB037952795BA95C9F7620F731F841F951F2F
S10B1CC0A01D0895F894FFCF64
S1131CC8FFFF0181018500747B56001000008DA080
S1131CD80203000800747B42001000008CA002017B
S1131CE810088003818065017A019101A901C2016C
S1131CF8DD01F9011702370259027D02A202726D51
S1131D080072656D6F74650A002578200056302EC0
S1131D183031002A2A2A2020202020205957696E91
S1131D2874682053657269616C20436F6E736F6CBD
S1131D38652020202020202A2A2A0A4669726D77E5
S1131D486172652076657273696F6E3A2025730A2D
S1131D580034204F70657261746F7220464D2053B1
S1131D686F756E642057696E642053796E74686564
S1131D7873697A65722E0A0044657369676E6564CF
S1131D88206279204B2E59617A6177612E0A0054BA
S1131D986869732069732053657269616C20436FA5
S1131DA86E736F6C652E0A00506C656173652069EB
S1131DB86E70757420636F6D6D616E642E0A0059C0
S1131DC857696E74680025640A00202020202020AA
S1131DD820202020202020253364002020202020BB
S1131DE8202020202573000000880681067A06003A
S1131DF8000000626F3A2578206C666F3A257820D7
S1131E086172673A25780A002D4F50253032642DC7
S1131E180A0073723A25782072723A257820617222
S1131E283A257820746C3A25782064723A2578200B
S1131E38736C3A25780A00786F663A2578206B73B4
S1131E48723A2578206B736C3A25782064616D3A70
S1131E5825782065616D3A2578206476623A25787C
S1131E68206576623A25780A006D756C3A257820E3
S1131E786465743A25782077733A25782066623A3F
S1071E8825780A00AB
S9030000FC
